:020000040800F2
:100000003805002005010008371800084B170008C4
:1000100035180008E1020008091B00080000000074
:100020000000000000000000000000003B18000875
:100030002703000800000000391800083D180008D8
:100040001F0100081F0100081F0100081F01000810
:100050001F0100081F0100081F0100081F01000800
:100060001F0100081F0100081F010008E502000829
:100070001F0100081F0100081F0100081F010008E0
:100080001F010008F10200081F0100081F010008FD
:100090001F0100081F0100081F0100081F010008C0
:1000A0001F0100081F0100081F0100081F010008B0
:1000B0001F0100081F0100081F0100081F010008A0
:1000C0001F0100081F0100081F0100081F01000890
:1000D0001F0100081F010008FD1A00081F01000889
:1000E0001F0100081F0100081F010008DFF810D0E1
:1000F00000F042F800480047C11E0008AFF300803E
:10010000380500200648804706480047FEE7FEE71E
:10011000FEE7FEE7FEE7FEE7FEE7FEE7FEE7FEE7B7
:10012000B9180008ED000008D2B201E000F8012B78
:10013000491EFBD270470022F6E710B513460A4667
:1001400004461946FFF7F0FF204610BD30B50B46B8
:10015000014600202022012409E021FA02F59D42F7
:1001600005D303FA02F5491B04FA02F52844151ECB
:10017000A2F10102F1DC30BD064C074D06E0E0685B
:1001800040F0010394E8070098471034AC42F6D3DE
:10019000FFF7B0FFEC1F00080C20000870B5044604
:1001A00000688168C943C90717D1816821F001013E
:1001B000816000F021FD05460AE000BF00F01CFD53
:1001C000401B022804D920688068C043C00706D0BD
:1001D00020688068C043C007F0D0002070BDA06ACE
:1001E00040F01000A062E06A40F00100E0620120EF
:1001F00070BD10B50146406A826A12F0500F05D0FA
:10020000006A026BBDE8104008461047816A41F45D
:100210000071816201688968C1F3424107290CD1EC
:10022000017B51B9816A21F480718162816AC904BC
:1002300003D4816A41F00101816200F0F5F810BD3C
:1002400010B5406A816A41F040018162C16A41F0A3
:100250000401C16200F0EAF810BD10B5406A00F078
:10026000E4F810BDF8B500260446009600688168E1
:10027000C943C9072DD0816841F00101816016484A
:1002800016490068B0FBF1F000E0401E0090002825
:10029000FBD100F0B1FC054616E000BF00F0ACFC5D
:1002A000401B022810D920688068C043C0070BD0CB
:1002B000A06A40F01000A062E06A40F00100E06235
:1002C00084F824600120F8BD20688068C043C0071E
:1002D000E4D10020F8BD00001400002040420F00CF
:1002E000FEE70000014800F06FBA0000B0000020F7
:1002F000014800F069BA0000F400002030B590F821
:1003000040500124AC40C56B6C6004686360436876
:10031000102B036803D099600068C26030BD9A60FA
:100320000068C16030BD704772B6FEE7F8B50024C2
:10033000009490F824202546012A12D0012280F84A
:1003400024204A681F23072A0DD20668776B521EA5
:1003500002EB820293409F430B6893401F437763F5
:1003600019E00220F8BD06680D2A0AD2376BD21FA9
:1003700002EB820293409F430B6893401F43376315
:1003800009E0F76A0D3A02EB820293409F430B6843
:1003900093401F43F7620A68072306680A2A0AD3B4
:1003A000F7680A3A02EB420293409F438B689340FE
:1003B0001F43F76008E0376902EB420293409F4316
:1003C0008B6893401F4337610A68102A01D0112AB5
:1003D00020D1124B02689A4217D193681B0219D49C
:1003E000936843F4000393600968102912D10C4903
:1003F0000C4A0968B1FBF2F101EB8101490000E010
:10040000491E00910029FBD104E0816A41F02001DE
:100410008162012480F824502046F8BD0024014068
:100420001400002040420F007047704770470000E2
:100430002DE9F0414FF0000704003D467ED0A06A50
:10044000002628B9E66284F82460204600F07EF891
:100450002046FFF7A3FEA16AC90600D420B1A06A16
:1004600040F01000A06269E0A16A21F4885141F0D7
:100470000201A1626268E169237B0A4347EA430102
:100480000A43A1684FF48077B94209D0012907D007
:100490005FF0000194F814C0BCF1010F02D00AE033
:1004A0003946F7E7F3B1A36A43F02003A362E36A96
:1004B00043F00103E3622368D3F804C02CF4694CD1
:1004C0004CEA010CC3F804C021688B68DFF870C0E7
:1004D00003EA0C0313438B60A168B9420BD00129D6
:1004E00009D00CE0DFF85CC0A3690CEB43330B438D
:1004F00043F40061DFE7218A0D05A5F58015216829
:10050000CB6A23F470032B43CB62216889680E4BBE
:100510001940914208D1E662A16A21F0020141F03E
:100520000101A162BDE8F081A06A20F0020040F064
:100530001000A062E06A40F00100E0620120F1E7F3
:10054000FDF7E1FF00E0FFFFFE0E1FFF70B586B074
:1005500000260546009601960296039600681A4901
:1005600088422ED11949886940F4007088618869F1
:1005700000F400700490886940F008008861886980
:10058000694600F008000490032000900190104894
:1005900000F03CFA104C0F48C4E900068020C4E982
:1005A000026080002061800060612020A061C001A5
:1005B000E061204600F0B2F908B1FFF7B5FE2C6209
:1005C000656206B070BD00000024014000100240CA
:1005D000000C014008000240B00000202DE9F04767
:1005E000894604463B4900683B4F0E1D90468842B1
:1005F00001D0B84207D1306810F4702F03D0012524
:100600002846BDE8F08794F8240001280CD001208A
:1006100084F824002046FFF725FE05004FF0000077
:1006200004D084F82400EBE70220EAE7A16A40F650
:100630000162914341F48071A1622168B94218D1ED
:10064000326812F4702F14D0A16A41F48011A162B3
:100650003168490505D5A16A21F4005141F4805162
:10066000A162A16AC9040AD5E16A21F00601E1622A
:1006700006E0A26A22F48012A2624968E9E7E06219
:1006800084F82400216A15488862216A1448C862E7
:10069000216A1448086321686FF00200086020682E
:1006A000816841F480718160216843464A464C313B
:1006B000206A00F061F920688168C1F3424107298E
:1006C000816803D041F48011816099E741F4A00171
:1006D000FAE700000024014000280140F30100086F
:1006E0005B0200084102000810B590F821100022BA
:1006F000022905D00421816380F82020012010BD4B
:1007000001680B6823F00E030B6001680B6823F08F
:1007100001030B6090F84030C46B012101FA03F330
:10072000636080F8211080F82020104610BD000082
:1007300010B590F821100024022903D00421816310
:1007400001243DE001680A6822F00E020A60016897
:100750000A6822F001020A601A4A0168914201D136
:10076000012121E0174A1432914201D110211BE0EE
:10077000144A2832914201D1891515E0114A3C32C0
:10078000914201D189140FE00E4A5032914202D1B8
:100790004FF4803108E00B4A6432914202D14FF4A9
:1007A000801101E04FF08071064A083A5160012142
:1007B00080F82110002180F82010416B01B188479A
:1007C000204610BD080002402DE9F05FC16B0C68A7
:1007D00001680B68D0F840C0042202FA0CF2494DBF
:1007E000DFF824A1494E4A4FDFF828B1DFF828E1AD
:1007F00022422CD05A072AD50A68920603D40A68E6
:1008000022F004020A600168A94201D1042219E021
:10081000514501D1402215E0B14202D14FF480622E
:1008200010E0B94202D14FF480420BE0594502D1A9
:100830004FF4802206E0714502D14FF4800201E0BE
:100840004FF080622F4908394A60C16A3BE04FF09F
:10085000020808FA0CF818EA040F4FF000094FF0EC
:10086000010235D05FEA837832D50B689B0605D448
:100870000B6823F00A030B6080F821200168A9426D
:1008800001D1022219E0514501D1202215E0B142E7
:1008900002D14FF4007210E0B94202D14FF400527D
:1008A0000BE0594502D14FF4003206E0714502D108
:1008B0004FF4001201E04FF00072124908394A600B
:1008C00080F82090816A00291AD0BDE8F05F0847BF
:1008D000082505FA0CF5254212D01B0710D50B6828
:1008E00023F00E030B6090F84010C36B02FA01F185
:1008F0005960826380F8212080F82090016BE2E744
:10090000BDE8F09F080002401C0002403000024099
:1009100044000240580002406C00024030B528B349
:1009200008C8134914221944B1FBF2F18900C163CC
:1009300010498163022141771A6843F6F0718A43B6
:10094000D0E900142143D0E902452C432143046936
:1009500021434469214384692143114319600021E3
:100960004163012242770177084630BD012030BD46
:10097000F8FFFDBF0000024070B5044690F820006B
:10098000002501280CD0012084F8200094F8216073
:100990000020012E06D084F820000225284670BDD4
:1009A000022070BD022684F82160A06320680668DA
:1009B00026F0010606602046FFF7A0FCE06A00284A
:1009C0002068016802D041F00E0106E021F0040128
:1009D00001602068016841F00A0101602068016837
:1009E00041F001010160D9E770B5044600F004F957
:1009F0000546601C02D004480078044400F0FCF86E
:100A0000401BA042FAD370BD080000202DE9F84F2A
:100A1000DFF8B891002409F1040A0AF1040B234617
:100A20000F270BF1040EC9E00125A5402A40AA4278
:100A30007DD1674ED1F804C0ACEB0608B44532D086
:100A400014DCBCF1030F3AD009DCBCF1000F2AD052
:100A5000BCF1010F1CD0BCF1020F31D11DE0BCF183
:100A6000110F17D0BCF1120F2AD119E0B8F5881F69
:100A700019D006DCB8F5803F15D0B8F5801F1FD11E
:100A800011E0B8F5001F0ED0B8F5041F18D10AE028
:100A9000CB6815E0CB681B1D12E0CB6808330FE074
:100AA000CB680C330CE08B682BB1012B4FF00803A3
:100AB00003D0456104E0042302E0056100E0002367
:100AC000FF2A01D8064601E000F104064FEA84053A
:100AD00001D9A5F12005D6F8008007FA05FC28EA1F
:100AE0000C0803FA05F548EA0508C6F800804D68C9
:100AF000ED0062D5374DAE6946F00106AE61AD69D5
:100B000024F0030605F001050095334D06EB050CB6
:100B1000DCF80850A607360F07FA06F825EA08059C
:100B2000DFF8B880404503D14FF0000817E044E0FB
:100B3000DFF8AC80404502D14FF001080FE0DFF84C
:100B4000A480404502D14FF0020808E0DFF8988009
:100B5000404502D14FF0030801E04FF0040808FAC5
:100B600006F848EA0508CCF808804D68D9F8006016
:100B7000ED034D4601D5164300E096432E604D68C7
:100B8000DAF80060AD03554601D5164300E0964300
:100B90002E604D68DBF80060ED025D4601D516431E
:100BA00000E096432E604D68DEF80060AD027546A9
:100BB00001D5164300E096432E60641C0D682A465A
:100BC000E5407FF431AFBDE8F88F0000000401403C
:100BD0000000111000100240000001400008014018
:100BE000000C014000100140001401400AB10161F5
:100BF00070470904FBE70000014880687047000067
:100C00000800002002488168027811448160704722
:100C100008000020074810B5016841F0100101608C
:100C2000032000F075F8002000F006F800F024F82A
:100C3000002010BD0020024070B50D4D04464FF459
:100C40007A712878B1FBF0F00A490968B1FBF0F03D
:100C500000F062FB48B9102C07D200222146501E3A
:100C600000F036F800206C6070BD012070BD0000FF
:100C700008000020140000200C4808B5816941F0EC
:100C800001018161816901F001010091C16941F0B7
:100C90008051C161C06900F08050009004484168F3
:100CA00021F0E06141F00071416008BD0010024098
:100CB00000000140002809DB00F01F0201219140E3
:100CC0004009800000F1E020C0F8001170470000EA
:100CD000F0B40E4B1B680C46C3F30223C3F10705A7
:100CE000042D00D90425191D072901D2002300E095
:100CF000DB1E012606FA05F1491E214099409E405F
:100D0000761E16403143F0BC00F014BF0CED00E03D
:100D1000064900F0070208684FF6FF03184040EA52
:100D20000220034A10430860704700000CED00E009
:100D30000000FA052DE9F84305460078354CC00758
:100D400054D0E0690026C00008D4E06940F080502B
:100D5000E061E069012600F0805000902E480168B3
:100D6000C90512D40168804641F480710160FFF723
:100D700043FF074605E000BFFFF73EFFC01B6428A6
:100D800023D8D8F80000C005F6D5206A10F44070CA
:100D900021D0A98801F4407181421CD0206A1F49EA
:100DA000012220F440700A6000220A602062C0071D
:100DB00011D0FFF721FF074641F2883808E000BF55
:100DC000FFF71AFFC11B414502D90320BDE8F88394
:100DD000206A8007F4D5206A696820F440700843CF
:100DE00020621EB1E06920F08050E0612878800721
:100DF00005D56068A96820F4404008436060287801
:100E0000C00605D56068E96820F48000084360608A
:100E10000020DBE700100240007000404004424226
:100E20002DE9F0470F46050061D0434E306800F0D1
:100E30000700B84209D2306820F00700384330601C
:100E4000306800F00700B84251D128683B4C810758
:100E500012D5400703D5606840F4E06060602878F0
:100E6000000703D5606840F4605060606068A9685E
:100E700020F0F000084360602878C00728D0686838
:100E8000012810D02168022810D0890700292EDA05
:100E9000616821F0030101436160FFF7ADFE804608
:100EA00041F288390DE021688903EFE78901EDE718
:100EB000FFF7A2FEA0EB0801494502D90320BDE8D7
:100EC000F0876068696800F00C00B0EB810FEFD12B
:100ED000306800F00700B8420BD9306820F00700F6
:100EE00038433060306800F00700B84201D001207C
:100EF000E5E72878400705D56068E96820F4E060F8
:100F0000084360602878000706D56068296920F4E6
:100F1000605040EAC100606000F038F86168084A3B
:100F2000C1F30311515CC8400649086006480068D7
:100F3000FFF782FE0020C2E70020024000100240BE
:100F4000D41F0008140000200C00002004480549AC
:100F500000684968044AC1F30221515CC8407047E7
:100F60001400002000100240E41F00080448054956
:100F700000684968044AC1F3C221515CC840704707
:100F80001400002000100240E41F000812A185B0E8
:100F90000FC98DE80F0014A0144A0068049051682E
:100FA000134801F00C03042B10D0082B0ED1C1F311
:100FB0008343C9031DF803000AD5516804AAC1F38D
:100FC0004041515C0A4A5043B0FBF1F005B0704714
:100FD00008494843FAE70000020304050607080928
:100FE0000A0B0C0D0E0F1010010200000010024041
:100FF00000127A0000093D002DE9F84F040070D07E
:101000002078C04DC00749D06868C0F3810001282E
:1010100007D06868C0F38100022809D16868C0035E
:1010200006D52868800339D560680028E7D035E008
:101030006068B0F5803F0BD010B1B0F5A02F11D093
:10104000286820F480302860286820F4802002E09E
:10105000286840F480302860606890B1FFF7CCFDCC
:1010600006460AE0286840F480202860F0E700BFC8
:10107000FFF7C2FD801B642873D828688003F7D56A
:101080000CE0FFF7B9FD064605E000BFFFF7B4FD31
:10109000801B6428F0D828688003F7D420789A4E03
:1010A00080074FF001094FF0000839D5686810F04B
:1010B0000C0F07D06868C0F38100022809D1686866
:1010C000C00306D42868800714D52069012808D1F8
:1010D00010E02069B0B1C6F80090FFF78DFD07461B
:1010E00005E00AE1FFF788FDC01B0228C4D8286884
:1010F0008007F7D52868616920F0F80040EAC10050
:1011000028600DE0C6F80080FFF776FD074604E092
:10111000FFF772FDC01B022823D828688007F7D488
:10112000207800072CD57948A169D9B1C0F8009082
:10113000FFF762FD074604E0FFF75EFDC01B0228D3
:101140000FD8686A8007F7D571484FF4FA510068E4
:10115000B0FBF1F0009000BF0098411E0091FAD260
:101160000EE080E0C0F80080FFF746FD074604E08F
:10117000FFF742FDC01B022875D8686A8007F7D4C4
:101180002078400760D5E8690027C00008D4E869E6
:1011900040F08050E861E869012700F0805000903D
:1011A0005C480168C90513D40168834641F4807125
:1011B0000160FFF721FD824606E000BFFFF71CFD3E
:1011C000A0EB0A0064284ED8DBF80000C005F5D576
:1011D000E06801280AD008B1052813D0286A20F059
:1011E00001002862286A20F0040002E0286A40F02A
:1011F00001002862E06841F2883B98B1FFF7FCFCEF
:1012000082460BE0286A40F004002862EEE700BF47
:10121000FFF7F2FCA0EB0A0159455AD8286A80076B
:10122000F6D50CE0FFF7E8FC824605E0FFF7E4FCAA
:10123000A0EB0A0159454CD8286A8007F6D41FB1A3
:10124000E86920F08050E861E06988B36968C1F31B
:101250008101022944D00228C6F8608004D0FFF73B
:10126000CBFC044638E034E0FFF7C6FC074604E058
:10127000FFF7C2FCC01B02282BD828688001F7D4D6
:10128000206AB0F5803F05D16868A16820F400307D
:1012900008436860D4E908010843696821F47411BF
:1012A00008436860C6F86090FFF7A6FC044606E0B5
:1012B00025E000BFFFF7A0FC001B022809D8286822
:1012C0008001F7D51BE000BFFFF796FC001B02284A
:1012D00002D90320BDE8F88F28688001F4D40EE01D
:1012E0000128F7D06868226A00F48031914204D165
:1012F000616A00F47010884201D00120EAE7002002
:10130000E8E7000000100240000042428004424230
:10131000140000200070004010B5401EB0F1807F26
:1013200001D3012010BD4FF0E02460610F21601750
:1013300000F000FC0020A06107202061002010BD0B
:1013400070477047F8B5026804461068D168536961
:1013500010F00F0F4FF0000553D003F0010601F419
:10136000907737435FD0C20705D0CA0503D5226CFA
:1013700042F001022264420705D5DA0703D0226C4D
:1013800042F002022264820705D5DA0703D0226CFC
:1013900042F004022264020707D501F02002324322
:1013A00003D0226C42F008022264226C002A34D05E
:1013B000800604D5880602D5204600F0E8FA2068A9
:1013C0004069216CC0F38010090700D430B3204677
:1013D00000F0BCFA2068416949061BD5416921F03B
:1013E00040014161A06BA8B158494163A06BFFF770
:1013F0009FF9002811D0A06B416B01B0BDE8F0400F
:10140000084783060FD58B060DD52046BDE8F8406A
:1014100000F0BDBA2046FFF794FFF8BD2046FFF765
:1014200090FF2564F8BD266B2023012E52D1C606FD
:1014300050D5CE064ED510685068009050694006D1
:101440002AD5A16B086840680004000CEAD0A68D7C
:101450008642E7D9E0858869202818D0D06820F432
:101460008070D0602068416921F0010141612068ED
:10147000416921F04001416184F83E3025632068D4
:10148000C16821F01001C160A06BFFF72DF9A08D9C
:10149000E18D401A81B219E0A08DE18D401A81B230
:1014A000E08D0028BED00029BCD0D06820F4907018
:1014B000D0602068426922F00102426184F83E3027
:1014C00025632068C26822F01002C2602046FFF740
:1014D00037FFF8BD05062BD50D0629D594F83D003C
:1014E0002128F6D1A068B0F5805F01D12069B0B1A4
:1014F000206A411C2162216800784860E08C401E0F
:101500000004000CE084E4D12068C16821F080016F
:10151000C1602068C16841F04001C160F8BD206A27
:101520000088C0F308005060206A801C2062E5E754
:101530004006F3D54806F1D5D168204621F0400198
:10154000D16084F83D3000F0D1F8F8BDBB18000838
:1015500070B5040004D094F83D00002510B106E0F9
:10156000012070BD84F83C50204600F023F8242070
:1015700084F83D002068C16821F40051C160204614
:1015800000F060FA2068016921F49041016120684F
:10159000416921F02A0141612068C16841F400518C
:1015A000C1602564202084F83D0084F83E000020BE
:1015B00070BD000070B586B0002506460095019507
:1015C0000295039500682349884241D12249C869A0
:1015D00040F40030C861C86900F4003004908869A4
:1015E00040F00400886188691C4C00F004000490FD
:1015F00004200090022001900320039069462046B9
:10160000FFF704FA0820CDE9000569462046029557
:10161000FFF7FCF9134C124820601020C4E90105C3
:101620008020C4E903052020C4E90550C001E06121
:101630002046FFF773F908B1FEF776FE74630022C7
:10164000114626206662FFF743FB2620FFF732FB98
:1016500006B070BD00440040001002400008014088
:1016600080000240F40000207047000070B504467E
:1016700090F83D00202830D169B362B394F83C0063
:1016800001282AD0012084F83C002162A284E2844F
:1016900000252564212084F83D00636B1048986282
:1016A000636B1048D862636B0F481863606B134616
:1016B00045632668606B321DFFF75EF921686FF0A5
:1016C0004000086084F83C502068416941F0800186
:1016D0004161002070BD012070BD022070BD00007E
:1016E0001519000843190008CB18000830B40B483E
:1016F00040F6E44140F6E44402684A4340F6FF7194
:10170000B2FBF1F2026043686343B3FBF1F3436061
:1017100030BC03A10B4800F0F9B900000000002024
:1017200056616C7565205042303A20253034752062
:10173000202056616C7565205042313A20253034A6
:10174000750A0000180000207047FEE73EB5002132
:10175000174800910191154A02910260921582602A
:1017600001240473017502254FF460220561C261F2
:101770004160FEF75DFE08B172B6FEE70820CDE9D4
:1017800000040320029069460948FEF7CFFD08B126
:1017900072B6FEE70920CDE9000569460448FEF768
:1017A000C5FD002801D072B6FEE73EBD0024014011
:1017B0003C00002070B586B000241C4800940194C1
:1017C00002940394816941F010018161816901F003
:1017D00010010491816941F020018161816901F06A
:1017E00020010491816941F004018161816901F066
:1017F00004010491816941F00801816180690C4E06
:1018000000F008004FF400550490002229463046AD
:10181000FFF7ECF901200095CDE9010402200390C7
:1018200069463046FFF7F2F806B070BD001002407E
:1018300000100140FEE7FEE770477047FFF7E2B98E
:1018400030B593B028216846FEF775FC14210AA82C
:10185000FEF771FC002501200F95109511950104EC
:1018600012958DE8230004904FF4E010CDE90810A4
:10187000022407946846FFF7BFFB08B172B6FEE783
:101880000AA90F2081E831004FF48060CDE90D05F1
:1018900002210AA8FFF7C4FA08B172B6FEE74FF4B6
:1018A000004011900F940FA8FFF744FA002801D0D0
:1018B00072B6FEE713B030BD704710B5406A002124
:1018C000C185C184FFF73DFD10BD70B5446A206835
:1018D000406994F83D10C0F3C0100025212904D1BF
:1018E00018B1E584204600F049F82068406994F872
:1018F0003E10C0F38010222904D118B1E58520469E
:1019000000F024F8206C40F0100020642046FFF71F
:1019100018FD70BD10B50146406A0968096889065E
:101920000CD40021C18401684A6922F080024A6116
:101930000068C16841F04001C16010BDFFF7D6FEEC
:1019400010BD10B5406AFFF7FFFE10BD0168CA6800
:1019500022F49072CA6001684A6922F001024A6169
:10196000016B012904D10168CA6822F01002CA6023
:10197000202180F83E100021016370470168CA6889
:1019800022F0C002CA60202180F83D10704708B5DF
:1019900090F83E10222901D0022008BD82684FF441
:1019A00080539A4201D1016921B1816A9A421BD0C8
:1019B0004AB10AE00268816A5268C2F308020A80EA
:1019C000816A891C08E0026972B10268526802F0FB
:1019D0007F020A70816A491C8162C18D491E090417
:1019E000090CC18503D019E002685268F1E701686B
:1019F000CA6822F02002CA600168CA6822F48072B4
:101A0000CA6001684A6922F001024A61202180F817
:101A10003E10016B012903D0FFF726FE002008BD10
:101A2000002101630168CA6822F01002CA600168DF
:101A30000A68D20602D50A6849680091818DFFF7CD
:101A40007FFCEBE770B5044600680169E26821F4A9
:101A50004051114301612169A0680843616908434D
:101A60002168CA6841F20C639A430243CA60206845
:101A70004169A26921F44071114341611E49206806
:101A8000884202D1FFF772FA01E0FFF75FFA00EB3C
:101A9000C00101EB0012606864218000B2FBF0F32A
:101AA000B3FBF1F36FF018067343B2FBF0F5B2FB32
:101AB000F0F605EB8305322303EB0515B5FBF1F5D5
:101AC000B6FBF1F605F0F00505EB0615B2FBF0F6F6
:101AD000B2FBF0F0B0FBF1F06FF01802504306EBF0
:101AE000800003EB0010B0FBF1F0216800F00F0064
:101AF0002844886070BD0000003801400148FFF7AD
:101B000021BC00006C000020FEE700000FB4084B71
:101B100010B504A902AA039800F02CF8044602A903
:101B2000002000F0C8F9204610BC5DF814FB00004E
:101B3000B71E00080907090E002804DB00F1E020A9
:101B400080F80014704700F00F0000F1E02080F8EA
:101B5000141D704702E008C8121F08C1002AFAD1FC
:101B600070477047002001E001C1121F002AFBD11D
:101B7000704700002DE9FF4F8BB0884605460026D0
:101B800006E025280BD0DDE90D1290476D1C761C70
:101B900028780028F5D10FB03046BDE8F08F00243A
:101BA000A146A2460122AE4900E0044315F8013FD8
:101BB000203B02FA03F00842F7D128782A2810D0F7
:101BC0006FF02F022878A0F13001092915D809EB10
:101BD000890102EB410144F0020400EB01096D1C94
:101BE000F0E758F8041B5FEA010903D544F40054F8
:101BF000C9F1000944F002046D1C28782E2817D181
:101C000015F8010F44F004042A280ED06FF02F02BB
:101C10002878A0F1300109290AD80AEB8A0102EBE1
:101C2000410100EB010A6D1CF2E758F804AB6D1C92
:101C300028786C280FD006DC4C2817D068280DD0E7
:101C40006A2814D104E0742810D07A280FD10DE04E
:101C500044F400140AE044F4801401E044F4401415
:101C60006978814202D104F580146D1C6D1C2878BE
:101C7000692865D006DC00288DD0632827D0642829
:101C800006D15DE06E2808D073282AD0752877D059
:101C9000DDE90D129047761CE0E0C4F30250022803
:101CA00009D003280DD0D8F8001004280DD00E60FC
:101CB00008F10408D2E0D8F80010F217C1E9006278
:101CC000F6E7D8F800100E80F2E70E70F0E718F88B
:101CD000041B8DF8001000208DF80100EB46012058
:101CE00003E058F804BB4FF0FF3061074FF00007E6
:101CF00001D40AE07F1C57450DDA8742FADB1BF856
:101D000007100029F6D106E07F1C8742FCDB1BF898
:101D100007100029F8D1DDE90D23A9EB0700814662
:101D2000214600F0B1F83044C61904E0DDE90D1297
:101D30001BF8010B90477F1EF8D22146484688E0E9
:101D400058F8040BC4F302514FF00A0B032900D1D9
:101D500000B2042900D140B2002802DA40422D210D
:101D600002E0210505D52B218DF82410012104E086
:101D700006E0E10710D02021F6E708AF089113E054
:101D800058F8040BC4F302514FF00A0B032900D199
:101D900080B2042900D1C0B20021EEE75946FEF717
:101DA000D5F9303107F8011D0028F7D1ADEB070058
:101DB00000F1200B600702D524F4803401E04FF0DD
:101DC000010ADA4502DDAAEB0B0000E000208246A2
:101DD00000EB0B0108980144A9EB01000A90E00315
:101DE00006D4DDE90D2321460A9800F04DF806449B
:101DF0004FF0000908E009A911F80900DDE90D120A
:101E0000904709F10109761C08998945F3DBE00345
:101E10000CD5DDE90D2321460A9800F035F806447B
:101E200004E0DDE90D1230209047761CBAF1000184
:101E3000AAF1010AF5DC05E0DDE90D1217F8010B46
:101E40009047761CBBF10001ABF1010BF4DC0A9862
:101E50002146DDE90D2300F005F806446D1C97E6E8
:101E6000092801002DE9F041044600251E461746C9
:101E7000880404D405E039462020B0476D1C641E58
:101E8000F9D52846BDE8F0812DE9F041044600254A
:101E90001E469046C80301D5302700E0202788045D
:101EA00004D505E041463846B0476D1C641EF9D59F
:101EB0002846BDE8F0810A68531C0B60107070471B
:101EC00008B5FEF7A7FEFFF7BBFCFFF773FC33482E
:101ED000416941F0010141614069002200F00100C7
:101EE000009011460B20FEF7F3FE0B20FEF7E2FEFA
:101EF000002211461120FEF7EBFE1120FEF7DAFE5C
:101F0000284827490C2201604FF4E131416000214B
:101F10008160C160C0E904128161C161FFF718FBF3
:101F200008B172B6FEE7FFF711FC1F4C40F24150BA
:101F3000022220601B4821463038FEF74FFB216803
:101F400040F6E440414340F6FF70B1FBF0F22260FE
:101F5000616840F6E4435943B1FBF0F3114813A123
:101F600054386360FFF7D2FD0E49222254390D48E0
:101F7000FFF77CFB164D4FF4005401222146284602
:101F8000FEF734FEC820FEF72FFD0022214628462A
:101F9000FEF72CFEC820FEF727FDEEE700100240FA
:101FA000004400406C0000200000002056616C7569
:101FB00065205042303A202530347520202056616B
:101FC0006C7565205042313A20253034750A000086
:101FD00000100140000000000000000001020304A6
:101FE0000607080900000000010203040C20000895
:101FF0000000002018000000541B000824200008E6
:102000001800002020050000641B000800000000EC
:1020100000000000010000001000000000000000AF
:042020000024F400A4
:04000005080000ED02
:00000001FF
